:020000041000EA
:1000000000D80108770100100D000000A5010010C4
:1000100000000000000000000000000000000000E0
:10002000000000000000000000000000BD01001002
:100030000000000000000000BF010010C10100101E
:10004000C3010010C3010010C3010010C301001060
:10005000C3010010C3010010C3010010C301001050
:10006000C3010010C3010010C3010010C301001040
:10007000C3010010C3010010C3010010C301001030
:100080006461356538653933000000000300000005
:1000900000F002F800F040F80CA030C8083824182E
:1000A0002D18A246671EAB4654465D46AC4201D1B0
:1000B00000F032F87E460F3E0FCCB64601263342A2
:1000C00000D0FB1AA246AB4633431847D863000062
:1000D00008640000103A02D378C878C1FAD85207F1
:1000E00001D330C830C101D504680C6070470000EE
:1000F0000023002400250026103A01D378C1FBD844
:10010000520700D330C100D50B6070471FB500F017
:1001100053FA1FBD10B510BD03488546FFF7F6FF23
:1001200005F05EFD00F05AFA00D8010803B4FFF7AD
:10013000F1FF03BC00F05AFAFEE7000070B5054677
:100140000C46164602E00FCC0FC5103E102EFAD218
:10015000082E02D303CC03C5083E042E07D301CCDE
:1001600001C5361F03E021782970641C6D1C761EC2
:10017000F9D270BD7047FFF7FDFF72B61149124802
:10018000124A0B680360001D091D121F002AF8D1D6
:100190000D480F490860BFF34F8F0E488047FEE7B8
:1001A000FEE7FEE704207146084203D0EFF3098022
:1001B00000F002F8EFF3088003F084F8FEE7FEE7B2
:1001C000FEE7FEE7000000100000000880000000CD
:1001D00008ED00E091000010801C800803D0401C56
:1001E000801EFCD100BF7047EFF3108072B67047DD
:1001F00080F31088704710B5202A04DB0846203AA7
:10020000D040002110BD0B462024D340D040A21A7C
:1002100091400843194610BDFEB5054610460C46F0
:10022000184373D0AE468C460020AD1A01469C415F
:1002300067D36646002701243D46B61A9D4102D386
:1002400013463A462124654676462F04360C3E4333
:100250002D0CB61A9D4104D3150C1B042B4312041C
:100260001034654676462F06360A3E432D0AB61AE6
:100270009D4104D3150E1B022B4312020834654620
:1002800076462F0736093E432D09B61A9D4104D301
:10029000150F1B012B431201241D65467646AF073F
:1002A000B6083E43AD08B61A9D4104D3950F9B0096
:1002B0002B439200A41C65467646EF0776083E4322
:1002C0006D08B61A9D411AD392185B41641C16E062
:1002D0000018764665464941B71A9D410191009044
:1002E00009D36046B11A98418E4684460098019918
:1002F0000025401C6941DD0752082A435B08641E43
:10030000E6D57246634603B0F0BDFFE70020014624
:10031000C046C0462A462346F5E7034610B50B43C0
:100320009B070FD1042A0DD308C810C9121FA3427E
:10033000F8D018BA21BA884201D9012010BD002096
:10034000C04310BD002A03D0D30703D0521C07E0DE
:10035000002010BD03780C78401C491C1B1B07D1E2
:1003600003780C78401C491C1B1B01D1921EF1D153
:10037000184610BDF8B5042A2CD3830712D00B7889
:10038000491C0370401C521E83070BD00B78491C7C
:100390000370401C521E830704D00B78491C037065
:1003A000401C521E8B079B0F05D0C91ADF0020236B
:1003B000DE1B08C90AE0FFF7C1FEF8BD1D4608C9EB
:1003C000FD401C46B4402C4310C0121F042AF5D235
:1003D000F308C91A521EF0D40B78491C0370401C54
:1003E000521EEAD40B78491C0370401C012AE4D445
:1003F00009780170F8BD01E004C0091F0429FBD28F
:100400008B0701D50280801CC90700D0027070479D
:1004100000290BD0C30702D00270401C491E0229DC
:1004200004D3830702D50280801C891EE3E70022E3
:10043000EEE70022DFE70378C27819464378120618
:100440001B0219438378C0781B0419431143090226
:10045000090A000608437047002203098B422CD387
:10046000030A8B4211D300239C464EE003460B4304
:100470003CD4002243088B4231D303098B421CD366
:10048000030A8B4201D394463FE0C3098B4201D358
:10049000CB01C01A524183098B4201D38B01C01A90
:1004A000524143098B4201D34B01C01A5241030907
:1004B0008B4201D30B01C01A5241C3088B4201D3B6
:1004C000CB00C01A524183088B4201D38B00C01A63
:1004D000524143088B4201D34B00C01A5241411A8A
:1004E00000D201465241104670475DE0CA0F00D06D
:1004F0004942031000D34042534000229C46030966
:100500008B422DD3030A8B4212D3FC22890112BAEB
:10051000030A8B420CD3890192118B4208D38901C3
:1005200092118B4204D389013AD0921100E08909DB
:10053000C3098B4201D3CB01C01A524183098B42BC
:1005400001D38B01C01A524143098B4201D34B01A5
:10055000C01A524103098B4201D30B01C01A524108
:10056000C3088B4201D3CB00C01A524183088B428F
:1005700001D38B00C01A5241D9D243088B4201D318
:100580004B00C01A5241411A00D201466346524103
:100590005B10104601D34042002B00D54942704702
:1005A00063465B1000D3404201B50020C046C04600
:1005B00002BD70477047704770B5064C7C44064DCD
:1005C0007D4403E0206800198047241DAC42F9D126
:1005D00070BD0000145F0000145F000010B50446F9
:1005E000C046C0462046FFF7A1FD10BD01491820B6
:1005F000ABBEFEE726000200704770B58C18057888
:10060000401C6B075B0F01D10378401C2A1106D1F7
:100610000278401C03E00678401C0E70491C5B1EEB
:10062000F9D12B0705D40023521E0DD40B70491CA1
:10063000FAE70378401CCB1A921C03E01D780D707A
:10064000491C5B1C521EF9D5A142D8D3002070BDB5
:1006500003B40148019001BD4F040008F0B58DB00E
:1006600034216846FFF7E5FE082000260190684621
:10067000174F06726A463146384600F0BBFB002130
:10068000384600F0C7FC04461BE00A2002F010FECA
:100690000021384600F0BEFCA0420FD16D1C0A2D8F
:1006A000F3D36846019606726A460021384600F088
:1006B000A1FB002C09D001200DB0F0BD002C02D010
:1006C00000240025E1E70124FBE70020F4E7000017
:1006D00080063140F0B51D4D0027A3B02C46002800
:1006E00001D01B4E00E01B4E20680121C906884244
:1006F00028D320681849884224D86068A84221D3AA
:100700006068164988421DD86068C0071AD06846DC
:1007100005F0EFFB0021684605F084FC32462946CF
:10072000684605F0C7FC1BA9684605F051FB684602
:1007300005F0D6FB701920221BA9FFF7EEFD00285B
:1007400000D10127384623B0F0BD00000080001022
:10075000007E0300007E07000000020800E0071092
:1007600003484168034A1062006880F3088808471C
:100770000080001000112040F8B5694C0546237830
:10078000164600200A22042B11D02378082B0ED005
:10079000022700290CD005292BD003292CD00129B0
:1007A0005DD002296FD004296ED006296DD09EE05D
:1007B000207800286AD101202070284603F0B4FB7D
:1007C0007D26F600304602F073FD284602F0C6FE94
:1007D000534800222830077403460421284603F0BA
:1007E000B0FB304602F064FD02214E4802F0A6FE46
:1007F0008AE001224A492BE0277804224A493B003B
:1008000005F06AF90B16160E0717122A10170E16A6
:1008100017006068002802D00520207000E02270D8
:10082000642006E00820F8E76068002800D1227004
:100830000846014620780027394B324620331F7086
:1008400059700E0A9E70090CD97018715F711946A3
:10085000284604F0F3FCF8BD07202070E8E7207874
:10086000022802D02078052841D1002E23D0032071
:10087000207032462D49284604F0A8FC0020054689
:100880002A4F606012E01EE027E02AE028E0A0681E
:1008900000F0A8F97919A06800F072FAA068FF3595
:1008A000FF30FF300230FF350235A060B542EED395
:1008B00001206060F8BD207802280CD0284603F0A3
:1008C00033FB062005E02078022810D1002E02D04C
:1008D00009202070F8BD22701AE020780A2813D071
:1008E00005E0207809280FD0207802280CD0207845
:1008F000030005F0F1F80B0B0B0B0B0B08080707B7
:1009000008080D00E6E7E6E72770F8BD0020207034
:1009100001231A460021284604F0A5FBF8BD00007B
:1009200030080008441C000870170000442000082C
:10093000062900D301BE130A00D001BE090209181E
:100940002120C0010818026000687047062900D302
:1009500001BE0902091801200003081801684900B6
:10096000490801607047062900D301BE0902081832
:100970002121C9014018006870470000030010B52C
:10098000114820D006291ED2002A1CD01468002C41
:1009900019D05068032800D901BE0802C1180120EF
:1009A0000003081804621179137A8907890D002B56
:1009B00001D00123DB07527A1943002A00D0042218
:1009C00011430160002010BD0100FE00F8B50500D4
:1009D00067480C467ED0002C7CD02078002806D0BA
:1009E000012804D0022802D0032800D001BE667876
:1009F000002E06D0012E04D0022E02D0032E00D0ED
:100A000001BEA378002B06D0012B04D0022B02D00C
:100A1000032B00D001BE2279002A06D0012A04D07F
:100A2000022A02D0032A00D001BEE17900910029F8
:100A300002D0012900D001BE217A8C46002903D0C2
:100A40006146012900D001BEE1788E46002903D01D
:100A50007146012900D001BEA779002F04D0012FD3
:100A600002D0022F00D001BE617A002908D00129EE
:100A700006D0022904D0032902D0042900D001BEE7
:100A80008007B607800F360F9B0730439B0E9207F7
:100A90001843120E10436279002A01D0FF2201325E
:100AA0001043009A4907D207520910436246D20701
:100AB000120910437246D207D2091043BA07920BAB
:100AC0001043490808432860E1686960617A042995
:100AD0000BD000E04AE04000400F2169042800D11B
:100AE00001BEA960607A002803D02846E16900F0C1
:100AF00057F82846E16A00F03DF8607A012801D0F5
:100B0000022832D10122D203616950008B1883423E
:100B100000D301BEA3699E18864200D301BE89B2EC
:100B20001B0419432961617A02291ED12B68A16A2D
:100B30005B005B0F022B00D001BE491E814200D337
:100B400001BE6B6989B21B0C1B040B436B61236AEA
:100B50009918814200D301BE616A8A18824200D38B
:100B600001BE98B209040843A8610020F8BD000046
:100B70000100FE0000B5002800D101BE026852004D
:100B8000520F130004F0A8FF0504080A060405002C
:100B9000C16000BD016100BD416100BDC16100BD1A
:100BA00002685200530F4A1E002B02D0042B09D0BA
:100BB00000E001BE012109048A4200D301BE91B2C6
:100BC000C16070470123DB039A4200D301BE490094
:100BD000491E89B281607047C00501D0002070476E
:100BE0000120704770B50546144CFFF7F5FF00284B
:100BF00022D004F0C7FE134811490160456000216E
:100C00008160C1601048FF24006801344030007EDC
:100C100000280CD002F0AEF87D21C900FFF71CFCC3
:100C200001460A48FFF718FC0949411800E0002175
:100C30002046FFF70DFD0446204670BD0600520019
:100C40000001001CC00A00086006000860F5900062
:100C50009808000010B5024800F004F810BD00002C
:100C60001006000810B50C490028086105D00221C3
:100C70000170FF2141700021418008480068403028
:100C8000017D002907D0407D002804D002220449BC
:100C9000002000F071FB10BD4C0600086006000843
:100CA000C903000810B50C4C002000F001FA00F058
:100CB00019FA00280DD10948006800F013F804461D
:100CC00007480121006842689160406881680029F6
:100CD000FCD1204610BD000002005000C00A0008F0
:100CE00060060008011E29D016DC1F480A1A81423E
:100CF00026D00ADC1D48101806D0092829D01C4926
:100D0000C84218D12920400470471748C04308182A
:100D100019D001280FD119E0802922D004DC102934
:100D20001AD0402807D119E0C11F1248F939EBD079
:100D3000114AD142E8D00F48F9307047002070477F
:100D40000C48401F70470B48001F70470948C01EE1
:100D50007047052000057047084870470748401C49
:100D600070470448401E7047030000F00300005025
:100D7000FFFFFFAF06005200FA00AEFF0100500077
:100D800070B50D460646164CFFF726FF002824D006
:100D9000002D22D004F0F6FD134812490160FF2413
:100DA000013444608660C560104800684030C07DF2
:100DB00000280DD001F0DEFF7D21C900FFF74CFBBC
:100DC00001460B48FFF748FBE1218900411800E08C
:100DD00000212046FFF73CFC0446204670BD000081
:100DE0000600520000010006C00A00086006000864
:100DF000808D5B00F8B50600844814460D467CD013
:100E0000002C7AD0082D00D301BE2068012800D91B
:100E100001BE6068010903D1012801D0092800D171
:100E200001BE207A400900D001BEE068002806D04B
:100E3000012804D0022802D0032800D001BE206976
:100E4000012800D901BE6069012800D901BE206ACD
:100E5000012800D901BE606A012800D901BEA06A3C
:100E6000012800D901BEE06A002806D0012804D07C
:100E7000022802D0032800D001BE206B00280ED02B
:100E800001280CD002280AD0032808D0042806D054
:100E9000052804D0062802D0072800D001BEE0694A
:100EA000002806D0012804D0022802D0032800D050
:100EB00001BEA1698E46012900D901BE0127AF40BC
:100EC00069000091032210318A403B461343504A87
:100ED00012688032D2799446B2588007800F8840D9
:100EE0007146C907C90F9A43A94011430843624696
:100EF000B050227A2946304600E084E000F092F8B3
:100F00006068082D00D301BE010903D1012801D07A
:100F1000092800D101BE3E49AA00096880314979FB
:100F20008C4671580F2393400007000F994390405F
:100F3000084361467050E068082D00D901BE0028C2
:100F400006D0012804D0022802D0032800D001BE18
:100F50002F4A00991268803212799446B2580323BE
:100F60008B408007800F9A43884010436246B05000
:100F70002169082D00D901BE012900D901BEB0693F
:100F8000C907C90FB843A9400143B1616169082D80
:100F900000D301BE012900D901BE1D480068803080
:100FA0008279B058C907C90FB843A9400143B1506D
:100FB000174800688030017A7058A38C020A208C90
:100FC000DB07C007C00F9B0F1843238D1202DB07FE
:100FD0005B0F1843A38D9B07DB0E1843238E5B0723
:100FE0001B0E1843FE232B409B009840104370506B
:100FF0002068082D00D301BE012800D901BE0028B9
:1010000002D0B7600020F8BD7760FBE701005A000E
:1010100060060008082900D901BE0069C840C00761
:10102000C00F704730B5082900D301BE530900D066
:1010300001BE104B1B689C695B69001BC009000165
:101040001B18D0061F24C00E042907D21A68C90035
:101050008C40A24388401043186030BD5A68CD00D0
:10106000203DAC40C9002039A2438840104358605D
:1010700030BD000060060008130C00D001BE0B0C50
:1010800000D001BE120489B20A43026000687047B2
:10109000064937220968525C824200D801BE0A6ABA
:1010A0008031C98F41435018704700006006000826
:1010B000064937220968525C824200D801BE0A6A9A
:1010C0008031C98F41435018704700006006000806
:1010D000034909688031096C4058C00F704700000F
:1010E00060060008034909688031096C4058C00F48
:1010F00070470000600600080068C00FC00701D5F7
:10110000002070470048704701008A000068C00F47
:10111000C00701D5002070470048704701008A00D1
:1011200070B50C460546FFF7D3FF002806D0200C0B
:1011300000D001BEA0B26860002070BD004870BD44
:1011400001008A0070B50C00054600D101BEFFF712
:10115000BFFF002803D0E8682060002070BD014870
:1011600070BD000001008A0010B5002A00D101BE48
:1011700000F002F810BD000070B514460D4606469A
:10118000FFF7BAFF002801D0044870BDF460280CB6
:1011900000D001BEA8B2B060002070BD01008A007E
:1011A00002490A68002A00D1086070474406000816
:1011B000F0B51E4C059D2468002C00D101BE2C26E4
:1011C000704300191E04DCB21B0C360E836050C045
:1011D000174E372733680838FF5CA74200D801BE96
:1011E0001F6A8033DB8F6343FB1803613468382642
:1011F0004368365D9E4200D801BE0126246A5B0129
:1012000036039B19E418446183681E0C01D001BEAB
:1012100001BE1E041E43A660C261016200218161FD
:10122000002D01D029888181F0BD0000440600080E
:1012300060060008F8B500260446374600960028E8
:1012400000D101BE2069002800D101BE60690028DC
:1012500000D101BE216A002900D101BEC568290C58
:1012600021D02A0C0021FFF707FF1A4920690968DD
:101270008031096C4158C90F15D06946FFF762FFEC
:1012800000280CD10098E26901680F0CC9B28A42AB
:1012900005D9226A89005158002900D0884739466B
:1012A0002069FFF73DFF2804000C0FD0A9B20022EF
:1012B0006069FFF7E1FE606A002802D0804766623D
:1012C00003E0A06A002800D08047A661606900683A
:1012D000F8BD00006006000810B50549096800293E
:1012E00000D101BE2C2250434018FFF7A3FF10BDD0
:1012F0004406000830B500258DB0044601950295DE
:10130000002800D101BE6068042800D301BEE06A55
:10131000002800D101BE206B002800D101BE14229C
:10132000214603A8FEF70AFF1422A11808A8FEF719
:1013300005FF69460598888003981330C880049893
:10134000029001A80090079BA26AE16A0698FFF745
:101350002FFF0022009511460C9B0B98FFF728FFEA
:1013600001A8216B01F012FF69460420085E04F019
:10137000C1FB0DB030BD000010B50A4B1B68002B3F
:1013800000D101BE2C246043C018036A002B00D199
:1013900001BEC069904203D990001950002010BDD1
:1013A000014810BD440600080A028A00FFB581B05A
:1013B000140000D101BE1F4A1268002A00D101BEEC
:1013C0002C23584386181C48594300688D18203038
:1013D000077E68683946FFF73FF80120884000041F
:1013E000009039467068FFF737F801228A4031696A
:1013F00000291BD0AB691148002B15D10968C90F12
:10140000C90711D52088009980B20843206030694F
:10141000C4600120A861049868623069110C00D092
:1014200001BE91B28160002005B0F0BD0348C01E2E
:10143000FAE70000440600086006000807028A0078
:10144000F3B581B000211D4A009111681A4C0029A2
:101450000DD0C9680A6882422BD946097201801AE8
:101460000125854002984F68002803D005E0124806
:10147000401EFEBDFEF7B8FE009010480068FFF762
:1014800045FE00280ED1B1007858284203D0A84369
:101490007850002401E0084C641E084800210068D0
:1014A000FFF73EFE0298002804D10098FEF7A0FE48
:1014B00000E0034C2046FEBD0301880048060008FA
:1014C00004018A0010B503460A4814460C430AD0AA
:1014D000002A07D0002905D0074806C0064918464B
:1014E00000F00EF810BD1846FFF7D2FD0349086062
:1014F000002010BD03018A00080600084806000805
:1015000070B51B4A0C46126801462032D27D17483E
:101510008A4229D9002C27D02278D20624D1084625
:10152000FFF7B6FD134D00210A46286003E08E0048
:101530006368491C9A5123685B098B42F7D80021E4
:10154000FFF7EEFD00212868220000D101BEFFF761
:1015500013FE064CA41E002805D100212868FFF7C1
:10156000DFFD002800D0204670BD000003018A0086
:1015700060060008480600080D49096800290FD0D8
:10158000C9680A68824211D942095301C31A01206D
:101590009840496892008958014204D00548704734
:1015A0000448401C70470348401E7047024870477B
:1015B000480600080101880004018A00014908600A
:1015C0007047000060060008F0B5154B05461B7813
:1015D000124885B0002B1ED00C4617460126FF206E
:1015E00001ABD1C300200346024600906621284685
:1015F00000F082FFFF2001ABD1C30020034602466A
:1016000000909921284600F077FF04467D20C00015
:1016100001F04EFE204605B0F0BD00008000B20093
:101620002C08000800220A604A608A60CA600A61C9
:101630004A610A7601680122D207114301607047AE
:1016400070B5002500282AD0002928D0002B26D0EC
:101650000C682606360E03D0E4B2012C00D001BE81
:10166000CC682606360E03D0E4B2012C00D001BEB1
:101670004C68072C00D901BE00241C605C609C6093
:10168000DC601C615C611C76DC611C625A621C853A
:101690000268D30FDB0704D5D20702D024E0134839
:1016A00070BD03220F231202DB01C3189C6CA40837
:1016B000A4009C640B78DB07DB0F1A4301231B0695
:1016C0009A430B7BDB07DB091A4307231B049A436E
:1016D0000B79097A5B075B0B1A4303231B0389070A
:1016E0009A43890C0A430260284670BD0400B20088
:1016F000F0B515460A4685B0127800211E46FF2334
:101700000A9C01930292039100910B460A460746F8
:101710000494314600F0F0FE002806D10023012297
:1017200029463846009400F049FE05B0F0BD00009F
:10173000FFB51D4887B014460D0000D101BE002C36
:1017400029D0AF6900207E6905900246396803E020
:101750001302225C1A43401C8842F9D305A928468B
:1017600000F0C8FB002E1BD03279FF2A18D00E499A
:10177000884215D0002810D030682D7801230A99AE
:10178000039302950192049139680091C1B22346F6
:10179000079800F0B1FE0BB0F0BD05988068ECE74B
:1017A00001487C30F7E700000400B20030B5044681
:1017B000886985B0C3680A48002B0ED0087802906B
:1017C0000125FF21002003950492019100901A79D0
:1017D00019780346204600F08FFE05B030BD0000AA
:1017E0008000B20010B5002301241946E402DA019A
:1017F0001218121911609160D16011621164516464
:101800009164D1641165116651669166D166116764
:101810005B1C042BEBD310BDFFB58BB01F46002122
:10182000D4190C98641E164608910991002800D11D
:1018300001BE80690690806902900698006C0A904B
:1018400006984068A0427DD9079107A90C9800F03E
:1018500051FB002824D10798002821D00168059168
:10186000721AC56810462946FEF7F6FD45430599EC
:1018700022464E1907A90C9800F03CFB050028D120
:1018800007990F68C968E01B0C46401CFEF7E4FD91
:10189000002900D0401C44433C19641EA71B17E0DC
:1018A00030460299FEF7D8FD002902D0029948433C
:1018B0000646601C0299FEF7CFFD002906D002986B
:1018C000641C60430299FEF7C7FD0446A71B002570
:1018D0007F1C06984068A04255D9002000900B98C4
:1018E0000068C00745D0FEF77FFC009041E032461B
:1018F00009A90C9800F0FEFA05000CD109980169BD
:101900000A91C268029201684068491E504340181B
:10191000039084422AD2039428E0149A0C990B98DD
:10192000FFF744FF050024D106980022036808A9A8
:10193000304604F0B1F808AA149B0C990B98FFF7F5
:10194000F7FE00E01FE0050013D17D200A9AC000D9
:101950004243149B0C990B9800F066FA05460298D6
:10196000874208D936183F1A002D02D103988642C3
:10197000D3D3002FBBD10B980068C00704D00098C8
:10198000FEF736FC00E0024D0FB02846F0BD000027
:101990000400B200F7B584B004983B4D002600283F
:1019A0006DD000296BD04868002868D0069A002ABC
:1019B00065D00968002962D000252F460291019068
:1019C00054E00198B9004458002C4ED020780128EA
:1019D00008D0022806D0042804D0082802D0032802
:1019E00000D001BE217A002906D0012904D00229A5
:1019F00002D0032900D001BEA269002A42D0049A75
:101A0000012806D0022807D0042808D0082839D198
:101A100008E00120C00207E01120C00104E0092015
:101A2000000201E01320C00110182BD0026803232C
:101A30001B0489079A43890B0A43026020794007F7
:101A40000CD506980090237A2278A169049800F0BA
:101A5000F7FA002802D00820B8400643A0690068C1
:101A6000002801D0042800D901BE7F1C02988742BB
:101A7000A7D3002E03D059204004354605432846FD
:101A800007B0F0BD004DF4E70400B200FFB5DBB0D5
:101A9000649F002900D101BE8C69002C00D101BED9
:101AA000002640A8067748A8067140A80676087860
:101AB0004390087A2390606B4590304603AD2E54D6
:101AC000401C8028FBD3002057AA58AB002111549A
:101AD000195459AE3154401CC0B20328F6D3239A8E
:101AE00043995B9800F0C2FC459800287ED03820CE
:101AF0006946A1C157AA439B45995B9803F0FAFE3A
:101B0000002873D16846007B5328FAD16846407B91
:101B10004628F6D16846807B4428F2D16846C07BCF
:101B20005028EED16846407C0128EAD16846007C06
:101B30004A90FF2047AB57AA03A9000203F0C2FC5A
:101B400040A8007F0028D1D049AB58AA03A9A448D7
:101B500003F0B8FCA24846AB59AA03A9C01E03F083
:101B6000B1FC40A8017E002902D10020E06420657C
:101B700040A8007F802801D8802901D9994D2CE107
:101B8000E16800290FD1216900290CD16169002980
:101B900009D1E169002906D1216A002903D1A16A8E
:101BA000002900D101BE03A96A4683C257AA439BFC
:101BB00045995B9803F09EFE054603A8002200901D
:101BC0004BAB10460099012689188E46097F8E403E
:101BD0000C2141438C46C9184E6071464E7F6146C8
:101BE000401C921C5E540428ECD300E0F3E06946EC
:101BF0000A8AC87C897C000609040843104302D481
:101C0000401CC00803E00121C907C01E08436A4602
:101C10006060927B00215207920F08D0012A02D007
:101C2000022A07D105E001210906884201D80321D3
:101C300000E004212160E1680620086000200871AE
:101C40000121A163A16A05220A6008714A98A66869
:101C5000002818D008A8007D010901208840606292
:101C60000D998804C20FC8040907C00E090F002A85
:101C700007D04022401C49005043891C4143A164C5
:101C80000AE00822F6E7FF20013060625648A064AF
:101C90005E98002800D15D90334603A85D9A239991
:101CA00003F09FFC4890012044902068042805D050
:101CB000206A03F05CFE4BAA03A94BE010A9009731
:101CC000C97A2246439B5B9803F0CAFB054610A9DC
:101CD000887A497A400604D5C80602D543490120CE
:101CE00008700020014623AA1154401C8028FBD311
:101CF000002D35D148A80079694685C158AA439B73
:101D000045995B9803F0F6FD050029D14899239881
:101D10000B0003F0E1FE061814100C0804188006EE
:101D200011D5EC200EE0C0060DD56C200AE00007AE
:101D300009D5BC2006E0400705D53C2002E0C007DD
:101D400001D013203060226A23A8489903F022FCB6
:101D50004BAA23A9204603F0B6FC4490002813D0D8
:101D6000449803A908182038C17F01208840A06149
:101D70004A98002805D04BAA03A9449803F0D6FB43
:101D800001E07D20C0002064206D002825D040A9FE
:101D9000097E03A802970091019059AA439B459997
:101DA0005B9803F0A7FD050017D143984BA902915A
:101DB0000090019740A8027E234603A95B9803F098
:101DC000C5FC084905467B39884206D10020E064FD
:101DD0000546206501E0034D7C3D28465FB0F0BD1F
:101DE00084FF00008100B200A08601002C080008DA
:101DF0001CB501236C46A3808C69A36A002B11D00B
:101E000000921B7801AAFFF773FC002806D16946EF
:101E10008988208FC9B208406946888068468088D2
:101E2000002800D001201CBDFFB581B01446064635
:101E3000049A0299FFF7DCFF0499002900D101BE42
:101E40000D8D002D1CD000284DD0A54200D3A5B289
:101E50003068C007284602D001F02AFA01E001F0FC
:101E60006DFA3046049A0299FFF7C2FFAC4201D9DD
:101E7000641B00E00024002835D0002CE8D12FE0BE
:101E8000002830D01948A508854201D9054602E04E
:101E9000002D00D101257D21C9002846FEF7DCFA7E
:101EA0000F4600903168C90705D001F0E7F93846C0
:101EB00001F0FEF904E001F03DFA384601F03EFA87
:101EC0003046049A0299FFF793FFAC4201D9641B94
:101ED00000E00024002806D0002C01D00098E1E7A3
:101EE000034805B0F0BD0020FBE7000040420F00B2
:101EF0000200B200F0B58E460100124800D101BECA
:101F000089694B68934217D90E480B6D801C9C461B
:101F1000002B11D00023CE6C10E061469C000C59C0
:101F2000E168A0CC083C4F437F19AA4205D3BA42CE
:101F300003D2704604600020F0BD5B1C9E42ECD8CA
:101F4000F0BD00000400B200FFB589B000203B4C9A
:101F5000129F0E460690002900D101BE0C98002861
:101F600000D101BEB0690B9985684068C9198142EA
:101F700060D80020079009980068C00751D0FEF78C
:101F800033F907904DE001200004874200D838461D
:101F90000590B0690022036806A90B9803F07CFD48
:101FA00068790022317801AC139B0FC4B06906AB8D
:101FB000006800902A792978099800F09DFA0400B9
:101FC00031D1A8680146401C10D033780020139A04
:101FD0000293FF24039004920090019403462A7B0D
:101FE000C9B2099800F088FA04001CD129690029B7
:101FF00004D0099800F026FA040014D11398009038
:102000002B7D059A0C99099800F0D8F904000AD1A3
:1020100005980B993F1A08180B900C990598081809
:102020000C90002FAFD109980068C00702D0079824
:10203000FEF7DEF820460DB0F0BD00000400B2004F
:10204000FFB589B0129F1D4616460C0000D101BE97
:102050001C2101A8FEF7EDF96846067105730023FF
:102060001A4601A9009707940998FFF70FFD0DB0D4
:10207000F0BD0000FFB589B00020464C129F0D4610
:102080000790002900D101BE0C98002800D101BEA4
:10209000A869416A0691066A0B994068C91981428C
:1020A00075D80020089009980068C00766D0FEF730
:1020B0009BF8089062E006990B98FEF7CDF9069818
:1020C000CA19824201D2384600E0401A05902946DA
:1020D000139A0998FFF76AFB040051D1A8690022FE
:1020E000036807A90B9803F0D7FC707900222978C0
:1020F00001AC139B0FC4A86907AB0068009032794C
:102100003178099800F0F8F9040039D1B068034635
:10211000401C10D02A78002013990491FF240390CA
:102120000090D9B2019402920346327B099800F0E4
:10213000E3F9040024D13169002904D0099800F0A2
:1021400081F904001CD113980090337D059A0C99F5
:10215000099800F041FA040012D1A8692946826C5E
:10216000139B0998FFF760FE040009D105990C98AC
:1021700040180C900B9840187F1A0B90002F9AD1A2
:1021800009980068C00702D00898FEF731F8204689
:102190000DB0F0BD0400B200024640781378000292
:1021A0001843002905D0D17892780906120411430A
:1021B00008437047F3B54F6981B00E46CD6801986A
:1021C00080300090406C0407240FBC4200D93C468C
:1021D000002C66D0082C1ED0012C26D0022C28D032
:1021E000032C2AD0042C32D0052C35D0062C3DD01F
:1021F0000098072C806D46D00122294600F030FA65
:102200000098806D0122291D00F02AFA08242D195A
:102210003F1B0098D6E70098806D0122294600F008
:102220001FFA0098806D012229E00098006D287047
:10223000EDE70098406D00220CE00098406D002210
:10224000294600F00DFA0098006DA870DFE70098AD
:10225000806D0122294613E00098806D01222946F5
:1022600000F0FEF90098006D2871D0E70098806DAD
:102270000122294600F0F4F90098406D0022291D42
:1022800000F0EEF9C3E70122294600F0E9F90098D1
:10229000406D0022291D00F0E3F90098006DA8713F
:1022A000B5E7F5607761002F0FD10F210198C901C3
:1022B0004118886C02229043886403203076306A8B
:1022C000002802D0316A032088477761FEBDF3B54C
:1022D0008F6881B00E460D6801988030009040688C
:1022E00008210007000F0C1ABC4200D93C46002C04
:1022F0004FD0082C1ED0012C29D0022C2BD0032C1F
:1023000029D0042C2FD0052C2DD0062C33D0072C0F
:1023100031D001212846FFF73FFF00998861012154
:10232000281DFFF739FF0099886108242D193F1BEC
:102330000098D4E701212846FFF72EFF0099886115
:102340000121281DFFF728FF00998861EEE700981A
:1023500029780161EAE700212846FFF71DFF00996F
:1023600048610224E2E701212846FFF715FF0099A2
:1023700088610424DAE701212846FFF70DFF009960
:1023800088610021281DFFF707FF00994861062496
:10239000CCE73560B760002F0FD10F210198C9013C
:1023A0004118886C40084000886401203076F0694C
:1023B000002802D0F16901208847FEBD70B58CB0BD
:1023C00004461F48109D002B08D0012B06D0022B7D
:1023D00004D0032B02D0FF2B00D001BE002A2DD049
:1023E0001748666CC01E7607760F042E26D2980713
:1023F0000123800BDB04C018531E9BB218432065D9
:10240000002000291AD06B6A0B93039105920021DA
:102410000891042269460A76097E04290ED1084DE6
:10242000AD1E69462046FFF7C5FE0BA800F050F828
:102430006946097E042901D1A842F2D10CB070BDD1
:102440000400B2000246084800290CD0536CC01E9C
:102450005B075B0F042B06D2491E88B20321890457
:1024600040181065002070470400B200012908D010
:10247000022906D0042904D0082902D0032900D05B
:1024800001BE002A06D0012A04D0022A02D0032A63
:1024900000D001BE012912D0022913D0042914D082
:1024A00008290BD11321C901401807D00168032363
:1024B0001B0492079943920B11430160704701215D
:1024C000C902F1E71121C901EEE709210902EBE791
:1024D00010B5044621680020002907D0012000F033
:1024E000E7FE2068401E206001D0002010BD01489A
:1024F00010BD00000200B200FFB583B08C46064656
:1025000000230E9F0C9D10990D98002A08D0012AD7
:1025100006D0022A04D0032A02D0FF2A00D001BE2E
:10252000002808D0012806D0022804D0032802D0B1
:10253000FF2800D001BE012F08D0022F06D0042FA3
:1025400004D0082F02D0032F00D001BE002D06D0EA
:10255000069C002C00D101BEFF2800D101BE496AB3
:10256000009191073F073F0D890B394362460024D4
:102570001143002D0AD00022D207120C11433165FD
:10258000002D23D98007800B019001E00F9AF3E71B
:10259000706C4007400F04280FD2601C0199A842BC
:1025A00001D2002200E00F9AD207120C1143069AC2
:1025B000125D3A4311433165C4B26846FFF788FFA4
:1025C0000346AC4202D203488342E1D1184607B029
:1025D000F0BD00000200B20070B58CB004461F4888
:1025E000109D002B08D0012B06D0022B04D0032B0A
:1025F00002D0FF2B00D001BE002A2DD01748666CF8
:10260000C01E7607760F042E26D298070123800B72
:102610009B04C018531E9BB218432065002000295C
:102620001AD06B6A0B93009102920021079102224B
:1026300069460A76097E02290ED1084DAD1E69460B
:102640002046FFF744FE0BA8FFF742FF6946097ECC
:10265000022901D1A842F2D10CB070BD0400B20031
:10266000030A08704B70002A03D0020C8A70000E17
:10267000C870704770B5B2B0064634216846FDF7A1
:10268000D8FE902213490DA8FDF758FD00240DAD8A
:10269000002E0AD0182060434019C1680191017AC8
:1026A0006A4611724069009007E0182060434019A3
:1026B00001690191407A6946087218206043411906
:1026C000496828586A46FEF795FB641C062CDFD340
:1026D00032B070BD3062001010B50348034A016883
:1026E0000348FFF785FB10BDDC620010D00A00082C
:1026F00000004140F0B5002685B00446384F02A8DE
:10270000C2C0FF22019235463346009632469F21D1
:102710003448FFF7F1FE01005ED100235622214626
:1027200030480097FFF74AFE010055D1227C384619
:102730002C30512A05D1627C522A02D1A27C592A1E
:1027400002D00022026047E00123224620320360CB
:10275000D7794760BB408360937A002B02D0012772
:102760009F40C760127B0261562A30D334E0A21921
:1027700010462130437B007B1B0203432801C01914
:102780005B1C23324361537B127B1B0213431A02EF
:102790008261002D06D0436882685A43C368D2180C
:1027A000C26101E00022FA6143698269C76953434B
:1027B000DB195B1E036201200003824203D10A4839
:1027C0004268521C42606D1C361DEDB2F6B2044FD9
:1027D0002C373869A842CAD8084605B0F0BD0000B9
:1027E000D00A000800004140FC1A00081CB50B4646
:1027F0000449009201910449024609680348FFF721
:10280000A3FB1CBDD00A0008DC62001000004140A0
:10281000F7B529480C0482B0036928490093096878
:10282000002600290AD02C3800902548134601685C
:1028300022462448FEF7F0FF05B0F0BD1E48806830
:10284000A04201D82048F7E720484068002823D15B
:1028500025E0194831010F18F869A0421BD8386AE1
:10286000A04218D30121B8690903884213D1002579
:102870000EE0280302192121029800F02BF800280D
:1028800005D11349029800F0FDF8002803D16D1C12
:102890007869A842EDD8761C00988642D9D32246A2
:1028A000DC21029800F016F80028C5D108490298EA
:1028B00000F0E8F8C0E70000FC0A00086406000821
:1028C000DC620010000041400400B200FC1A000865
:1028D00010EB090070B586B005460C4605A8042328
:1028E0005B1EDBB2C254120A002BF9D10C480E4E0B
:1028F00001680C4A3046FEF759FF00280DD10948FF
:10290000049001210420002203910090029501927D
:10291000E1B205AB3046FFF7EFFD06B070BD000039
:10292000DC620010D00A000800004140F0B597B00A
:10293000074658216846FDF77CFD30480069304D58
:10294000304C800305D50020206028602E4817B049
:10295000F0BD012000F0D0F80121084600F050F948
:102960000221012000F030F9012000F0DFF8012001
:10297000FFF780FE234B274E2C3B244A2449304648
:10298000FEF75EFE002201213046FFF76FFD1D4974
:1029900030462C39FEF746FE1A4A1F492C3A30467B
:1029A000FEF7F8FF0126002800D12E603946684660
:1029B000FFF7A0FE2968002914D11849A2684A60CF
:1029C00004220A608B6813221A60CB6806221A6000
:1029D0000B6A12221A608B6A05221A607D2212018C
:1029E0008E638A64E1680029B1D00B4A526812688C
:1029F0009269536A8B42AAD05162A8E78040004096
:102A000064060008FC0A00080400B2001027000059
:102A10001C62001000004140E0620010C80700087E
:102A200070B50E4900250969890301D50C4870BDB0
:102A30000D4C01460B4A2046FEF7C6FD012000F072
:102A40005BF80020FFF716FE2046FEF7CBFE20685D
:102A5000400040082060284670BD000080400040D3
:102A60000400B200D00A00080000414003480449B5
:102A700000680968084300D001207047FC0A00087C
:102A800064060008F8B500240E460746254608E00F
:102A90002046641CB04201D3054D07E0012000F040
:102AA00007FC3846FFF718FE0028F1D12846F8BD8C
:102AB0000200B2001CB50B46044900920191044982
:102AC000024609680348FFF7D5FA1CBDD00A000882
:102AD000DC6200100000414010B5064909680A6830
:102AE00080310B69D158FF242402A1430002014325
:102AF000D15010BD60060008094900280DD0094AD0
:102B0000126840321279824207D9810006480818BB
:102B1000016849004908016000210846704700002B
:102B200001004A006006000880032640094A014669
:102B300012680748403212798A4208D9064889004B
:102B4000081801680122D207114301600020704774
:102B500001004A0060060008800326400649096813
:102B600040310979814200D801BE044980004018F3
:102B700000688006800F70476006000880032640CA
:102B800010B50246FFF7EAFF01248440104600F02A
:102B900009F800F051F8610808182146FDF75CFCBF
:102BA00010BD00000649096840310979814200D80A
:102BB00001BE04498000401800680007000F7047FC
:102BC00060060008800326400B4B02461B6809483C
:102BD00040331B7993420CD903290AD80748920045
:102BE00012181068302389079843890E0843106033
:102BF0000020704701004A0060060008800326405C
:102C00000B4B02461B68094840331B7993420CD991
:102C10000F290AD8074892001018026809071209FC
:102C20001201090F0A4302600020704701004A00A8
:102C3000600600088003264010B504460B48006873
:102C400040308178A14200D801BE002C0BD0C07862
:102C5000A04204D3204600F0C7F9002802D1204644
:102C600000F020F810BD00F00FF9F6E7600600084C
:102C70000A49096840318978814200D801BE810043
:102C800007480918086C4007400F042804D1086859
:102C9000C006C00EFF30013070470000600600081B
:102CA0000003264000B51649096840318978814201
:102CB00000D801BE0022FFF7DBFF03281ED006DC90
:102CC00000280DD001280DD0022817D10DE00D49A4
:102CD000FF3811380DD0022810D003280ED10AE099
:102CE000094A0BE00948826808E000F089F80246CA
:102CF00004E0C86800E0C86BC00FC203104600BD06
:102D0000600600080005264000127A002C06000824
:102D10000348006801688030C0680858000E70479A
:102D20006006000810B50020FFF72AFF0246FFF7F3
:102D3000EFFF411C48088018FDF78EFB10BD000016
:102D4000054909680A688031C96853581B021B0A83
:102D500000060343535070476006000804480068AB
:102D600001688030C06808580004000E70470000F9
:102D70006006000810B5FFF7D5FF0246FFF7EEFF2B
:102D8000411C48088018FDF767FB10BD10B50649C7
:102D900009680A688031CB68D158FF242402A14316
:102DA00000020143D15010BD6006000870B5050057
:102DB0000AD00026114C1048E16A002913DBE06AB2
:102DC000E1050843E06205E00126F3E7012000F099
:102DD0006FFA6D1E00F020F8022801D0002DF5D109
:102DE0002E4301D0002070BDE06A40004008E06240
:102DF0000148401E70BD000003004A000005264047
:102E000000B500F009F8022801D0002000BD0148FB
:102E1000C06800BD2C0600080548016BC94389073E
:102E200003D0006BC007C00F70470220704700003E
:102E300000052640002800D101BE124A11688B030C
:102E40009B0BC901C90F0360C1715168CB04DB0C36
:102E5000C9018380C90D018191680B071B0F837223
:102E60000B061B0FC372CB02DB0C89008381890F19
:102E70008173D1684A05520FC9018271C90D01825F
:102E80007047000080052640F0B585B000256846F3
:102E9000FFF7D0FF00F038F8002805D06846807BA7
:102EA000022801D0012000E0002069468C88C97901
:102EB000009B002901D0022700E00127002820D034
:102EC000002C1ED00020FFF7EDFE194602F0ECFDAD
:102ED00005460E462046394602F0E6FDCA07400880
:102EE00010434A082D18314651410E4620463946B6
:102EF00002F0DAFD02460B4628463146FDF78CF912
:102F00000546284605B0F0BD01480068C00F70476F
:102F10008005264070B50D0001461D4810D00026E2
:102F20001C4A491E12684032D2788A421FD91A4878
:102F300089000C1820680121C9070843206005E0BA
:102F40000126EDE7012000F0B3F96D1E206CC007EB
:102F500001D1002DF6D1114821682E4308D08900F7
:102F6000890F022902D1216801432160002070BD30
:102F700081430120400708182060012000F098F9E3
:102F800020684000400820600148401C70BD0000DF
:102F900001004A00600600080006264000000030DC
:102FA0000F4B02461B680D484033DB78521E93429C
:102FB00013D990000B4A801800684206520E0A701E
:102FC000C204D20E4A70C202D20E8A700201D20F1F
:102FD0008000CA70800F08710020704701004A000D
:102FE0006006000800062640FEB505462548002676
:102FF00000684030C178002942D0002D40D0807850
:10300000A84200D801BEA9423AD369462846FFF734
:10301000C7FF002834D1284600F036F8002805D034
:1030200068460079022801D0012000E000206946AE
:103030000B784F788C78002822D0002F20D0002CDD
:103040001ED02846FFF72EFE194602F02DFD05463C
:103050000E463846214602F027FDCA0740081043B5
:103060004A082D18314651410E463846214602F095
:103070001BFD02460B4628463146FDF7CDF80646B5
:103080003046FEBD600600080649401E0968403112
:10309000C978814200D801BE034980004018006809
:1030A000C00F704760060008000626400749401E12
:1030B00009684031C978814200D801BE04498000C6
:1030C0004018006CC007C00F704700006006000881
:1030D00000062640F0B504462548002300680A464D
:1030E0004030C078A0421FD32046FFF7CDFF002814
:1030F00001D0204B3AE09678B01E0F2814D25578B4
:10310000002D11D0122D0FD8D0781178002801D0C1
:10311000132700E01627B94206D3002801D038272C
:1031200000E070278F4202D2124B9B1E1EE01779DF
:10313000641E022F0ED04906ED06490EED0C294300
:10314000F506ED0AC0072943000901430A48A50016
:10315000281801600848A10009180868032412799A
:1031600024079207A0439208104308601846F0BD58
:103170006006000803004A00000626400248006876
:103180008007800F7047000000122040F3B504460E
:103190000025134881B0002C1FD06168042900D39A
:1031A00001BE0022A25E0F4E0F4F002A07DB61888E
:1031B000104600F01BF80020205E616802E0054622
:1031C0000220205E02F0A2FCB068B84206D10020C6
:1031D000205E029900F034F800E005462846FEBD66
:1031E0000100560000ED00E00000000830B5134A71
:1031F0002C2312689B5C202B10D28308DC080CD196
:103200009B00C01AC400FF20A04012682033D5588C
:10321000A140854301400D43D55030BD40239B5A0A
:103220008B4200D101BE40070123400FDB07C018CD
:10323000126889001B0CC918505030BD6006000888
:10324000084A9368084A8000934206D1002900D1B9
:1032500001BE8218106C1164704704494018006C5C
:103260007047000000ED00E00000000800000010C2
:1032700010B50020FEF730F810BD000070B5044610
:103280000A4E0020C0433168FDF7E6F8054605E028
:10329000316828464843FCF79FFF641BAC42F7D8CF
:1032A00030686043FCF798FF70BD000028060008F6
:1032B00010B5034909784843FCF78EFF10BD0000A4
:1032C0001406000810B50A4902680A6042684A609C
:1032D00082688A60C268CA6002690A6142694A619A
:1032E00082698A61C069C86100F020F810BD0000E1
:1032F000883000080C4A907A4106D079C007C0098E
:103300000143907900040143507900020143107990
:1033100001431078D3781B061843937852781B0426
:1033200012021343184370470006001610B5FCF74D
:1033300003FF10BD10B5FFF7A1FF10BD10B5FFF7DB
:10334000B7FF10BDF0B5002801D0192200E06422BB
:10335000914201D9012200E00022274B1C68256818
:103360008034248E2E59B608B60016432E511C68A0
:1033700025688034278EEE5903242402A643EE519B
:103380001D682E6880356D8E7759BF08BF001743C2
:1033900077511A6815688032528EAE58A643AE50E7
:1033A000002804D0102907D921290AD90EE018686D
:1033B0004030427E8A4201D3002014E0827E8A425D
:1033C00001D301200FE0C27E8A4201D302200AE02D
:1033D000027F8A4201D3032005E0407F884201D367
:1033E000042000E00520196849680A6812091201E2
:1033F00002430A60F0BD000060060008704700004C
:10340000FFB50546224881B01E460C46012B02D06E
:10341000002E00D001BE290B00D001BE1D4F1E4A58
:1034200039684031C98E8908491E114322468A43B2
:1034300001D1610000D401BE0F2109022A460A40D1
:1034400021408A4222D1FCF7CFFE3A68916840328F
:10345000938EC918538ED28E23401B0A5343920871
:10346000521E224092009A188B589C0AEBB2039D80
:10347000A402002D01D0FF2501352B43F507AD0D2A
:103480002B431C438C50FCF7B3FE002005B0F0BD6D
:103490000100CE0060060008000F0040F0B5254A8C
:1034A000054612682248134640335C8EDB8E460781
:1034B000A6199B085B1E1E432B46B34300D001BEDA
:1034C0002032D67C1B4A126893684032128E202E1E
:1034D00001D2FF2907D9002923D0022905D0FF29CD
:1034E00003D001BE01E000291BD09F58002F0BDB49
:1034F000114804432C40C00724180020202E04D279
:103500000906090A21439950F0BD022904D0FF2978
:1035100005D00748401EF0BD012149070C439C50CF
:10352000F0BD99580029FBDA00209850F0BD00004A
:103530000200CE0060060008FF00004010B5002821
:103540000BD00521C9014418606D00F040FD606D8D
:1035500000F096FD606D00F047FD10BD70B50500F0
:1035600013D00520C0012C18606D00F058FD606D6F
:1035700000F063FD0121606D00F0FEFE0021606D32
:1035800000F0FAFE284600F0BCFC70BD02210028C5
:1035900003D0C0790021106001E0002010600846CF
:1035A000704770B50D4600280ED00521C90144189A
:1035B000606D002D05D10122294600F0FDFE606DF1
:1035C0000022294600F0F8FE70BDFFB581B0044628
:1035D00068468189080601D5012200E0002268467C
:1035E000007A4906C506684646890520C001ED0EE9
:1035F000490E2018022D04D0012D0BD0002D12D021
:1036000026E0002E24D1022922D2856A002D16D16F
:10361000002303E0856A002D11D10123204601F02B
:1036200022FD074610E0012E12D121466031CA7BEF
:10363000002A0DD000220A74856A002D04D0806D06
:103640001A462146A8470AE0204600F06DFC06E035
:1036500001231A460021204601F005FD07463846A1
:1036600005B0F0BDFEB50E4600238F684D680446D8
:103670000122194601F0F7FC694622460D706032BE
:1036800028049574000E4870D0742B0C4B80203A9F
:1036900093868F80D7863B0CCB80690613870525E0
:1036A0002346ED01890F72336519224600290DD09A
:1036B000A86A002868D0082269461846FCF75AFE16
:1036C000AB6A32462146A86D984763E0082832D09D
:1036D00007DC030002F000FA07141A5E215E5E2880
:1036E0005E000C284CD006DC09282AD00A282FD0EE
:1036F0000B284FD132E0302838D031284AD13FE072
:103700002046019A009900F024F92DE03346204626
:10371000019A0099FFF759FF26E033462046019AA7
:10372000009900F0B7FA1FE033462046019A00994D
:1037300000F057F818E02046019A009900F048F888
:1037400012E033462046019A009900F066FA0BE039
:103750002046019A009900F0D9F805E0334620464A
:10376000019A009900F000FB044613E0A86A0028C3
:10377000A1D1002201231146204601F074FCF3E799
:10378000104600F0D1FB05E001231A460021204637
:1037900001F069FC2046FEBDF8B50D46002815D0A5
:1037A0000521C9014418A36C002B0DD0A66D01465C
:1037B0002A463046984701200090012369681B077C
:1037C0000022606D01F0CEF80020F8BD0320F8BDA6
:1037D00010B5014600246831012201F02FFD20467A
:1037E00010BDFFB50446012083B01A460090002C9E
:1037F0000FD06846418AC58A0523080ADB01E6180E
:10380000C9B2030002F068F90865080F2165653246
:103810003E65032007B0F0BDA16800296DD0122DD0
:103820002CD912274AE0A078012802D0022802D021
:1038300063E0A16900E0E16900295ED0C8788A7878
:1038400007021743BD4219D938E00F208001201824
:10385000407F012851D110293BD888000019016A06
:10386000002936D00F78AF4208D227E0A07802288E
:1038700043D1E168002940D00A2D01D82F461DE030
:103880000A271BE0A078012821D0A169002934D0A3
:10389000C8788A7807021743BD4200D82F46B72060
:1038A000800020183A460190FCF764FD0B21890145
:1038B000072061184877019900291ED03A46204612
:1038C00001F0BCFCBD421FD9B80611D01CE0E16973
:1038D000DCE7B36A002B03D02146B06D984705E0C2
:1038E00001231A460021706D00F0C0FC002091E712
:1038F0000021706D01F010F806E001231A46002146
:10390000204601F0B0FB0090009883E7F7B582B045
:1039100004466946088A0125400000194030408D60
:1039200008700520C001002620186F46406D2B4608
:103930002A46314601F042F801902A46394620468F
:1039400001F07CFC0198012800D10126304605B029
:10395000F0BD37B5002182B00C460091002813D08D
:103960006946097B0122C906C90E00290ED001292A
:1039700019D002291CD001231A46002101F073FB43
:103980000446204605B030BD0320FBE70146603108
:103990008B7B002B00D00092097C002903D000997A
:1039A0000222114300916946022201F047FCE8E738
:1039B0006946098A18250B064906490E6943091804
:1039C000002B02DA8031897801E0A031897C00295E
:1039D000E9D00092E7E710B5002812D0C269026171
:1039E00082694261022282700522D2018218536AE2
:1039F000002B04D0946D0A460146204698470020CB
:103A000010BD032010BD10B5002400280CD00A788A
:103A10000C2A42D00ADC130002F05EF80A3F1417A9
:103A20001A1D21243F31343F032010BD232A2CD0FE
:103A300033DD242A2CD0252A27D0262A28D02D2A47
:103A40002BD128E000F02CF807E0FFF7C4FF24E0BA
:103A500000F0B8F821E0FFF705FE04461DE000F095
:103A6000CBF91AE001784170062101700521C901E6
:103A700041184A6DC11C104600F026FD0DE000F013
:103A8000CFF90AE000F0B3F807E000F0E1F904E054
:103A900000F092F901E0FFF77FFE204610BD000024
:103AA000F3B58DB004460026C6700078607004201F
:103AB00020700123A37066712546603566662E72FC
:103AC0002E743046410009194031401C4E850228B1
:103AD000F8D3A1780BAAA068FFF758FD6846837455
:103AE00000220592437402740B9806900792089284
:103AF000099208A8027220468030069981600271FE
:103B0000026142610370C270069981632146A0314F
:103B10000A75026442640B74CA740A980390052003
:103B20000192C001009202922618706D069B0499C2
:103B300000F0B6FA002800D001202746FF37009099
:103B400081371C48396A002309181A461A48FFF7BA
:103B500057FC1A48396A002308181A461849FFF713
:103B60004FFC1448796A0023091813481A46103884
:103B7000FFF746FC1148796A012308181049002212
:103B80001039FFF73DFC0020E8760121706D00F050
:103B9000F3FB0021706D00F0EFFB706D00F0BCFCDA
:103BA000F369002B03D0B06D21460E9A9847009818
:103BB0000FB0F0BD000500406705000031080000AF
:103BC0001008004010B500280FD00278427005227E
:103BD0000270D2018218136A002B04D0946D0A4639
:103BE000014620469847002010BD032010BD10B5A7
:103BF000002810D042780270082242700522D201BB
:103C00008218136B002B04D0946D0A46014620469F
:103C10009847002010BD032010BDFFB5044681B0B9
:103C200000200090684640899C46C2B2A0780128D6
:103C300022D0E7690F20800123180520C001211838
:103C40002046267860304D6B002A17D067660272D6
:103C50006670072222700022C273827301201877D7
:103C6000002D03D0886D62462146A847204600F00B
:103C70005BF9009805B0F0BDA769DBE70027676630
:103C8000667006222270677107728773C7730774A4
:103C90001F77E5E7FFB5002681B00546002805D06F
:103CA00068468789380604D5012203E0032005B061
:103CB000F0BD00226B46187A0524C0067906E4019F
:103CC000C00E490E5B892C19022804D0012806D0A9
:103CD00000280DD02EE0002B2CD102292AD2A36A75
:103CE000002B34D10123284601F0BDF9009033E0C8
:103CF000302B31D004DC012B07D0022B1AD113E07A
:103D0000312B29D0322B15D126E028466030C17BDB
:103D1000002902D00121017416E001231A46002176
:103D2000284601F0A0F91CE0390A606D00F00BFE96
:103D3000060009D001231A460021284601F093F914
:103D40000090012E0CD00DE0A36A002B04D0A06DD2
:103D50002946049A984705E0284600F0E5F801E076
:103D6000012000900098A2E77FB51A466B460446F2
:103D7000416E00251889DE88002902D00979814228
:103D800007D801231A460021204601F06CF90546A8
:103D90000FE040000019403046850520C001201882
:103DA000866B002E02D0806D2146B047204600F081
:103DB000BBF8284604B070BD10B5002803D00A78BF
:103DC000262A02D004E0032010BD4A68002A0CD045
:103DD0000522D2018218536C002B04D0946D0A4640
:103DE000014620469847002010BD02210148FFF7F8
:103DF00055FBF8E75705000010B500280ED000224B
:103E000042710522D2018218D36B002B04D0946D2D
:103E10000A46014620469847002010BD032010BDE9
:103E200010B5002812D00278042A0DD94270082259
:103E300002700522D2018218D36A002B04D0946D3F
:103E40000A46014620469847002010BD032010BDB9
:103E500010B500280CD00522D2018218136C002B5B
:103E600004D0946D0A46014620469847002010BDB4
:103E7000032010BD0022026042608260C2600261C5
:103E80001146426193001B18521C9961102AF9D304
:103E9000704710B50024FFF7B6FD204610BD03465D
:103EA00010B50020002B0ED00524E4011C190B00D6
:103EB00001F012FE0F0B0D0F11131517191B2525FD
:103EC0001D1F21232500032010BDE26110BD2262C9
:103ED00010BD626210BDA26210BDE26210BD22631D
:103EE00010BD626310BDA26310BDE26310BD226409
:103EF00010BD626410BDA26410BDE26410BD052057
:103F000010BD0021C1704170017081704171024685
:103F100060324166117291730F23D1739B0111744A
:103F2000C0180177D176704710B5002808D0052158
:103F3000C9014418606D00F0D9FA606D00F0DDFC35
:103F400010BD70B500251C4600280AD0002C0AD0F0
:103F500000260B0001F0C0FD072E090B0D142E1CCE
:103F60002E00032070BD022070BD846023E0C46079
:103F700021E02179022901D884611CE0866105E0F5
:103F80002179022901D8C46115E0C6610F2512E02C
:103F9000102A01D9072070BD910009180C62002A6F
:103FA00009D00F2189014018417F002903D1012147
:103FB000417700E00625284670BD10B5002805D0E1
:103FC0000524E4010019406D00F0F8FC10BD006804
:103FD000002807D000219122C94312028018C16134
:103FE00000207047062070470068002808D009218B
:103FF00009034018816808229143816000207047BE
:104000000620704700689122120282185166092129
:1040100009034018816801221143816070470068DC
:10402000002808D09121090240188169490B4903F1
:10403000816100207047062070470068002808D082
:10404000092109034018816808221143816000207A
:1040500070470620704710B50468002C0DD0FCF79F
:10406000C3F89121090261188A6B01231B041A43CA
:104070008A63FCF7BDF8002010BD062010BD0000CB
:104080000068002808D09121090240188169034A7C
:10409000114381610020704706207047DD1F00003A
:1040A0000FB4F0B585B008A9497B03688C4608A910
:1040B0000D7B0C99002B0CD0022904D2042D02D2C6
:1040C0006046022807D3022005B0F0BC08BC04B04B
:1040D00018470620F8E702460D9801248005800D58
:1040E000039008A8007B8007000D02900E988007BF
:1040F000800C019008A8807B8C4086468800009048
:10410000002A01D0002968D1C71857483818826999
:104110000126B603B24382618269039E920A92022B
:104120001643032292029643029A32430326360331
:10413000B243012D01D0032D01D1019E3243826192
:1041400010AA1279492676020492002A05D0BF19D6
:104150003A6E0126F602324304E0BF193A6E012698
:10416000F602B2433A660C9F0122BF1C7646BA4063
:10417000002E1BD0002913D0912636029E19B76A53
:104180001743B762B76B2743B763B76B1743B76380
:10419000049A002A04D082690126360732438261DC
:1041A00082690126B6033243826116E086690127DF
:1041B000BF03BE43866100290FD08669BF03BE439B
:1041C0008661912000021818866A96438662866B83
:1041D000A6438663866B964386636046012801D0BA
:1041E00000293ED10098C2180920000310188269E6
:1041F0000127BF03BA4382618269039E920A920239
:104200001643032292029643029A32430326360350
:10421000B243012D01D0032D01D1019D2A438261BA
:10422000012275465207002D0DD085693D438561F9
:10423000002916D09121090259188B6A23438B62F9
:10424000816911430CE08669BE438661002908D06C
:104250009121090259188B6AA3438B6281699143AA
:104260008161002030E7000080900000F0B5046814
:104270001F46002C05D0022901D2022A03D30220B6
:10428000F0BD0620F0BD0125092600202D043603CF
:104290000B0001F021FC10092323232323232323D4
:1042A000232323232323233E002F0ED0A1198A6921
:1042B0002A438A612E4AA21893692B4393610A68A4
:1042C00001239B061A430A60F0BDA1198A69AA431B
:1042D0008A61274961188A69AA4308E08B00002A8D
:1042E00007D0002F0FD0191989198A692A438A61CA
:1042F000F0BD002F03D01E491A195118F5E71F19F8
:104300001B4BFB1801E01B199B199F69AF439F6171
:1043100002E00220002FEBD10029E9D00028E7D1EC
:104320000907090F1023002A05D01943A21951616A
:104330000123104904E09943F8E75B1C8B4215D038
:104340005469E405F9D58B4210D05369FF24013438
:10435000A343202423435361012302E05B1C8B42CF
:1043600004D05469E405F9D58B42C1D10720F0BDD2
:1043700080900000FFFF00000268002A03D002299D
:1043800003D30220704706207047492040020029CD
:1043900009D01018026802210A43026002688A43A9
:1043A000026000207047101801680122114301606B
:1043B000016891430160F4E710B50068002805D05A
:1043C000022901D2022A03D3022010BD062010BD0B
:1043D000002A14D08A001318492252029A18146A2B
:1043E0000123DB021C431462146A9C431462912271
:1043F00012028018826A01238B401A4382620020D5
:1044000010BD0000F8B505464468FF2028752E68E9
:10441000606B0121C9070843606302E00120FEF7D9
:1044200047FF606C4006F9D5606C4021084360642A
:104430006069C900084360610820FEF739FF6069C0
:10444000FF21013108436061012000F0D1FA912081
:1044500000023618F06D20273843F0650A212846FF
:1044600000F0E0FA002801D0012019E0F06DB84317
:10447000F065002000F0BCFA1048016A4907490FB6
:10448000012901D90E4901620E48FEF78FFC002870
:1044900013D10021284600F0C5FA002801D00020E1
:1044A00028750120FEF704FF20680121C907084391
:1044B0002060E06880210843E060F8BD00FF2640EE
:1044C000F027210010270000006800280AD00029EA
:1044D0000AD009221203801800684002400E0870BA
:1044E00000207047062070470220704700B5002862
:1044F0000DD0016800290AD00922120389188968A1
:10450000490502D50349FFF77DFD002000BD0620C7
:1045100000BD0000DC0500000068002808D009216B
:104520000903401881681022914381600020704780
:104530000620704770B505680261064681609120CB
:1045400000022C18E06D01210843E0650846FEF7E3
:10455000AFFEE06D10210843E065E06D0221884365
:10456000E06509200003281801680122D206914362
:1045700001600549082069188862304600F098F902
:104580003046FFF73FFF70BD80930000F1B500207B
:104590008AB002900390054604900A98076891201B
:1045A00000023C18E669A06906407DD0700709D575
:1045B0000420E06108206946087202A90A9800F008
:1045C000BEF90546300709D50820E061012069469B
:1045D000087202A90A9800F0B2F90543F00609D55D
:1045E0001020E06102206946087202A90A9800F0D2
:1045F000A6F90543F00412D5A16901200003814307
:10460000A161E06103206946087202A90A9800F0DE
:1046100096F90543A069012109030843A061B0058B
:1046200012D5A169012040028143A161E06105200A
:104630006946087202A90A9800F081F90543A06949
:10464000012149020843A061700610D54020E061B5
:10465000042069460872092000033818C1680391D4
:104660000069049002A90A9800F069F90543F0076F
:1046700011D0A06940084000A0610120E06106203F
:104680006946087202A90A9800F059F90543A06921
:1046900001210843A061700502D501208002E0617C
:1046A000B0040CD5012000E058E04003E06109208F
:1046B0006946087202A90A9800F041F90543F0051D
:1046C0000AD5FF200130E0610A206946087202A97C
:1046D0000A9800F034F9054330050AD50120C002DC
:1046E000E0610D206946087202A90A9800F027F9D6
:1046F0000543B00710D5A16902208143A161E061A3
:104700000E206946087202A90A9800F018F90543BC
:10471000A06902210843A06130061FD5A16980204D
:104720008143A161E061092000033E183068FF2148
:1047300009020840000A059003901020694608729B
:1047400002A90A9800F0FBF805433068FF2109022E
:1047500088433060A06980210843A061E06BA16BB1
:104760000840002606904AE00120B04001900699DA
:10477000084214D0A16B01988143A16325206946AA
:1047800008720020049002A903960A9800F0D7F856
:1047900005430198E063A06B01990843A06331468B
:1047A0001031012088400699084222D0A16B0120D7
:1047B0000004B040059081430190A1632620694622
:1047C0000872B0004921C019490240180396006ED2
:1047D00002A98005800D401C04900A9800F0AFF8F3
:1047E00005430198E063002E03D0A06B05990843B0
:1047F000A0632D480699B0408143761C0691069827
:104800000028B1D1E06AA16A08400190E06200246A
:1048100044E00126A64006421AD0A000C119092092
:104820000003081800908069059080020AD52320B3
:10483000694608720020049002A903940A9800F0C7
:104840007EF805430098059981610198B043019075
:10485000012636040198A64006421ED0A000C119C8
:1048600012480818069080690590C0020FD50121F2
:1048700005980907884305902D2069460872002095
:10488000049002A903940A9800F059F80543069988
:10489000059888610198B0430190641C0198002834
:1048A000B7D128460BB0F0BD010001008090000098
:1048B00070B54468606C6064E06B0125ED072843C7
:1048C000E063E06A2843E0621420FEF7F1FCA06B8D
:1048D0002843A06302E00120FEF7EAFC606C80063A
:1048E000F9D5606C202108436064206849060843BC
:1048F00020602820FEF7DCFC70BD0068002809D08D
:104900000921090340180168012292061143016040
:104910000020704706207047002806D00268002A51
:1049200003D0022903D302207047062070470123D9
:104930008B4091210020090251188B6470478268D6
:104940000369104618470068002808D0092212039E
:1049500080180268C9050A430260002070470620DB
:1049600070470000FFB5064681B000680A9D1C46EE
:104970001746002811D0FBF737FC024602987F212A
:10498000490480003368002F0AD00B4E86199859CD
:10499000002D08D08843204307E0062005B0F0BD75
:1049A000054E8036F2E7A043884398511046FBF746
:1049B0001FFC0020F2E7000018900000022901D23D
:1049C000022A01D3022070470068002809D089001C
:1049D000002A08D00818092109034018836500201F
:1049E00070470620704708180049F6E780900000DD
:1049F00010B58EB0044634216846FBF71AFD002C32
:104A000003D008200190102001E0002001906946A9
:104A100008726A4601210248FCF7ECF90EB010BD9D
:104A20008002314070B50D46002644680AE0002D32
:104A300005D03046761CA84201D9002070BD012067
:104A4000FEF71CFC606CC007F1D0606C01210843CC
:104A50006064084670BD0000F8B5154C0E4620781D
:104A60007D25ED00082805D12846FEF721FC3046BB
:104A7000FEF774FD2078012818D12F462846FEF74E
:104A800017FC3046FEF76AFD0948022528300574F8
:104A90000346002204213046FFF753FA3846FEF75A
:104AA00007FC02210348FEF749FD2570F8BD000010
:104AB00030080008441C0008F7B592A003C88CB069
:104AC0000791069008200025694602900D750D9803
:104AD0006030817C0391C67C0D98C9064030828E7F
:104AE0000992C90EC78E048F002901D1062E02D06B
:104AF000F02E0BD026E085498A4223D184480078E5
:104B0000A04200D204462246814917E0042F02D079
:104B1000052F0AD016E07E4814300078A04200D25B
:104B200004467B492246143108E079483C3000783D
:104B3000A04200D20446764922463C310D9800F04E
:104B40007DFB01250398212801D0A12805D122460B
:104B500031460D98FBF710FE012503984006800FA3
:104B6000022877D1A02E08D0A12E2BD0E02E35D050
:104B7000E42E4DD0E52E52D05CE0002C5AD0644893
:104B800044384078002855D1224662490D9800F0FB
:104B90001DFB00284ED1099839040D185E48854246
:104BA0000BD35B490020443948702846FCF71AF8BB
:104BB00058492846FCF7E4F84DE0554901204439AE
:104BC000487036E0002C35D009983904091822467F
:104BD0000D9800F033FB00283DD02BE0002C29D1AC
:104BE0000D98FFF7A1F97D24E4002046FEF746FB6F
:104BF0004A48FEF7B3FC2046FEF740FB4849012037
:104C00000860082247494848FBF7B4FB00F0A0FFC2
:104C1000082C00D908243E4922462C3904E0102CE7
:104C200000D91024414922460D9800F007FB0028C6
:104C300011D00025FDF71AFF002855D0B02E0CD05A
:104C4000B52E0DD00120C002B22E18D0B32E2BD01D
:104C5000B42E3FD048E00125ECE7082206A908E081
:104C60002B4844388078FDF737FD694608750122E6
:104C700005A90D9800F0E2FA002829D026E0844228
:104C800032D1FE02224623490D9800F09FFA0028F7
:104C90002AD11F4822464438807800901D4930466A
:104CA000029BFDF707FFE7E784421DD11849F80290
:104CB00044398B7822461749FDF798FD0546224670
:104CC00014490D9800F0BAFA002D01D000250BE030
:104CD000012509E00E480122443839461204807843
:104CE000FDF796FD002809D0002D05D101231A46B5
:104CF00000210D9800F0B7F90FB0F0BD0D98FFF747
:104D000013F9F9E74658313050524F47EE0300008F
:104D1000740800084420000800800010441C0008AB
:104D2000A83000083C640010C00300088000001098
:104D3000FFB599B01C991A9C8906890E0D9117919F
:104D400000211C9F129113910521C90143180146AE
:104D5000FF3181311B6D002C169315D0096A159116
:104D6000C11D04460326F9313607E034FF302130F7
:104D7000154610911490402F5AD36560206840006A
:104D8000400F04280CD00CE004464B6AFF34413439
:104D9000FF30613015937B4D164614911090EAE771
:104DA00001BE10212046A660FBF7FAFE21681C9880
:104DB00049008009490F022900D001BE01210904E0
:104DC000401E884200D301BE616980B2090C09040B
:104DD000014361611A98012813D120684000400FF7
:104DE000022800D001BEA0691021000C0004084375
:104DF000A06121684900490F022900D001BE80B29C
:104E0000A0611798002805D020461099FBF7B2FE44
:104E1000002104E000212046FBF7ACFE0121012225
:104E20001206206809069043084320600D9F00E0A9
:104E3000109C042F01D201201390002F71D0032069
:104E40006946087148718871087200204872139988
:104E5000002901D0002200E0022269468A72002067
:104E6000C872087301204873474B1C991A9A19405D
:104E70000D91002A09D049190596049113990690BD
:104E80000790002905D0394604E089190495059159
:104E9000F4E7B9080891002109910A910B910C914E
:104EA00001206946C8711398002808D1BF07BF0FB9
:104EB00005D014980C900020C8710120129001A90F
:104EC0001098FBF783FD002F46D01298002801D0E0
:104ED000002100E0032168460171032141718171C5
:104EE0000172002141728172C1720173012141730B
:104EF0001C993C200140244B1C983C331A9A1840C2
:104F0000002A129A04D0002A0CD0401904900DE017
:104F1000002A02D04D19049501E00D9804958019DE
:104F200005E019E00D9840190021049088190590BA
:104F3000012100200691079109900A900B900C9096
:104F400008976846C1711298002801D0149800E0B3
:104F5000109801A9FBF73AFD15991698062900D378
:104F600001BE0902091801200003081804621599FE
:104F7000062900D301BE01680122D2071143016056
:104F80001DB0F0BD00400030C0FF000010B500288B
:104F90000BD00521C9014418606DFFF74EF8606D14
:104FA000FFF715F8606DFFF73AF810BDF0B58BB05C
:104FB0000022694604468A740120059248740A74E6
:104FC0004025204607920892803006950992856018
:104FD00002710261426102702146A03185630A7547
:104FE000026442640A740A9803900520C00100928A
:104FF0000192029227182B46786D0499FFF750F81A
:1050000000206946887402262B4601220E7425462C
:1050100005924A749835AB602E71286168612870DA
:105020000A990391009001900290786D18340499C8
:10503000FFF736F80020694648740699A034A96342
:1050400026752864686420740A9900900190039181
:10505000029004AD0ECD786DFFF722F8002800D045
:1050600001200BB0F0BDF8B507001D4614460E46F2
:1050700009D00520C0013818406DFFF7F7F8002867
:1050800003D00120F8BD0320F8BD002E0DD018205C
:105090004643F01901468031A030002D01D0012295
:1050A00000E00022012C02D082740020F8BD8A703A
:1050B000FBE70000F8B50C460521C90166187365C9
:1050C0003265B0652046FF308130012700254762F8
:1050D00005622046FFF75AFF20460830FEF7CAFE59
:1050E000F56135627562B562F56235637563B56306
:1050F0000020F563410009194031401C4D8502280C
:10510000F8D325706570A770E5702571657120462C
:105110006030656605728573C5730574094A21465A
:10512000706DFFF707FA2046FFF740FF204600F0BA
:1051300009F9217861700F218901277061184D7775
:105140000D77F8BD933E0010016001214160002100
:1051500001724172704730B503240470012344701A
:10516000002A02D08370012401E0847003240471BA
:1051700014465C40C4700024002A02D002258571C8
:1051800001E084710125457282624471C471047228
:10519000C460436104618361012903D0002A0AD0FD
:1051A000102109E0C361002A01D0102100E0002194
:1051B0004462016208E001210462C161002A01D059
:1051C000102100E000214162C46230BDF8B5002723
:1051D00014460E460546002827D0002E27D0002C66
:1051E00025D0FEF7A1FE2346324600212846FFF7D0
:1051F0009FFD0520A106C0012C18002902D0606D7A
:10520000FEF729FF606DFFF771F92E46FF368136F4
:10521000726A00232846216D00F064F80200716A6A
:10522000206D06D0FBF784FB06E00320F8BD0220CA
:10523000F8BDFBF78BFB0E273846F8BDF8B50446E2
:1052400000200E4615460090002C15D0002E15D0DB
:10525000002D13D01346012200212046FEF7ADFE9B
:105260002B46324601212046FFF762FD2646603676
:10527000F07E002804D009E00320F8BD0220F8BD2C
:1052800002211748FEF70AF90120F0762046FEF7C2
:105290004BFE0A20FEF70CF80520C0012718786D98
:1052A000FFF724F92546FF3581352A6A0123204678
:1052B000396D00F017F80200296A386D03D0FBF74A
:1052C00037FB0098F8BDFBF741FB01220021204687
:1052D000FEF767F90020F0760E200090F8BD000080
:1052E00067050000FFB581B00546144C039902988C
:1052F000FBF739FB0521C9016F18912636020125FC
:105300002D0416E0641E16D00120FDF7B7FF0498A7
:1053100000280AD1786D00688019C16BA94204D1B8
:10532000C56302210648FEF7B9F803990298FBF716
:105330001AFB0028E6D005B0F0BD0000C40900004B
:1053400057050000F0B504460520C0012518286D5A
:105350009FB001680122D20711430160012211466A
:105360006846FFF7F8FE2046E03069460646FBF740
:105370002DFB002201216846FFF7EDFEE01D694686
:10538000F930FBF723FB2046FF3069462130FBF75D
:105390001DFB314618A8FFF7D7FE2646FF3681369B
:1053A000316A18AA286DFBF7E9FA012200210CA83E
:1053B000FFF7D1FE304640380CA90746FBF706FB45
:1053C000012200210CA8FFF7C6FE30460CA92038A8
:1053D000FBF7FCFA0CA93046FBF7F8FA39461BA894
:1053E000FFF7B2FE716A1BAA286DFBF7C7FA00200F
:1053F0001FB0F0BD064801680122890089089207A4
:1054000089180160016802061143016070470000BD
:1054100080012640F8B506460024FDF76BFF0D46D7
:1054200000903C20021B29460098FAF7E4FE020790
:10543000120F00200A230146D31A814101D33721DC
:1054400000E03021511862089219241D9170E4B2D5
:10545000D070402CE5D32220307003207070F8BD4E
:10546000FFB585B01C4616480E9D4B0625D0002082
:105470008B070126FF27002B0FDAD068002810D0F9
:105480000021019703960495029400910279017816
:1054900000230598FDF730F801E089070DD00028BA
:1054A0000BD10020034602460090B72101970396D6
:1054B000049502940598FDF71FF809B0F0BD0000AF
:1054C0008000B200FCB59C46C3B200040025000E6B
:1054D0000095019088790824C0009E46083011E0AC
:1054E0000E5DB6450DD10E19F379019F9F4208D18B
:1054F0007778009B9F4204D3B678012E01D12546D0
:1055000000970834A042EBD2002D0BD04819017946
:1055100091704179517081791170C0786146800035
:105520000870FCBD002160460170FCBDF0B54D6AFD
:105530001B3847082B070021DB0E08469B1CC400C4
:10554000241A2E46E64036097406F606A40FF60E17
:10555000002C06D0012C06D0022C06D0032C06D03D
:1055600007E0012105E0102103E0802101E07D2119
:10557000C900761C4E431C4674430C264643B6189D
:10558000401CB4600428DAD30C204743B818803894
:10559000C06FF0BD10B500680B0000F09DFA061159
:1055A0001E1E1E120411C1050BD53E2010600021E5
:1055B000022011715071C31E936010731161107538
:1055C00010BD010609D5104600F0C5F910BD00F068
:1055D000B7F910BD00F0CBF910BD40061046F9D563
:1055E000F5E7F0B50026FF25F6438778002401296A
:1055F0002FD003292DD0022A2BD3BA060221002A4C
:1056000012DA427A1A601C715971027A520909D071
:10561000FF229A601973007AC006C00E18611975CE
:1056200005254EE09E60F6E77A064AD5C27A1A60F2
:105630001C715C71827A520909D0FF229A601C7336
:10564000807AC006C00E18611975042539E09E6085
:10565000F6E7FD060121002D14DA002A12D0C27BE4
:105660001A601C715971827B520909D0FF229A601D
:105670001973807BC006C00E18611975032520E0E0
:105680009E60F6E7FD0714D0002A12D0427B1A6014
:105690001C715C71027B520909D0FF229A601C7355
:1056A000007BC006C00E18611975022509E09E60D6
:1056B000F6E7032018601C715C719E601C611C750C
:1056C00001252846F0BDF0B504460068042801D045
:1056D0001D2028E000206569431E2B604B78DB0607
:1056E0001E0F034601273D469D40B54303D05B1C7A
:1056F000042BF8D925E0042B23D21D1D00200E1801
:105700000C2747433679401CD6550428F7D3485D0B
:105710006169086058001D300DD112E0232801D3C3
:1057200000200EE0801C0A5CFF2AF7D0002808D079
:10573000D1B26269116062690021117162695171AF
:10574000F0BD6269FF211171F0BD0000FFB50026B8
:10575000674F8BB00D463446304600210AAA1154DB
:10576000401C0428F9D35AE02A1950786946844627
:10577000D0780890002008759078800915D001280D
:1057800005D0022805D00E98002100680BE0032008
:1057900000E00420002123185B1A5B19DF780AABB4
:1057A0005F54491CC9B28142F5D391780907090FAA
:1057B0000F2900D108210B9A0692099105AB149A82
:1057C00000210793159F01910292039100900A46D0
:1057D0000AAB049761460698FCF78EFE00280FD1AD
:1057E0000998002805D001460698FCF72BFE0028F2
:1057F00006D100230122009707990698FCF7DEFDE9
:10580000070008D17006060E6846007D089908401A
:1058100000D0012006430D98083484420CD8285D3E
:105820008007A1D5002F0AD05EE08078800004199F
:105830000D980834844202D92D4F7F1C54E028195A
:105840004178B142F1D1281980780E99401CC0B23C
:105850000390C8640398012801D8254F44E0002034
:10586000019000903CE00099019840180190241D9F
:105870002A5D002001211207120F08E04906401C92
:10588000090EC0B2042802D9194F7F1C01E00A4258
:10589000F4D029590123090A0902FF31013100918D
:1058A0000E990A6D029989005658019931600C21B0
:1058B00048431699095CB1601699401881683161B6
:1058C000426800998A4202D97360F16005E0F26093
:1058D00041680098FAF7C0FD70600298401CC0B2A1
:1058E000039902908842BED338460FB0F0BD000045
:1058F0000600B200FFB585B00C4649790020109D26
:1059000003900E9F0F9E0293032004950191009037
:1059100020791346024621780598FCF7EDFD002812
:105920000CD121690598FCF78DFD002806D1009562
:10593000237D3A4631460598FCF740FD09B0F0BD9D
:10594000122101600021017141714A1E82600173C0
:1059500001610175704734210160002101714171BD
:105960004A1E8260017301610221017570470221A4
:1059700001600021017141714A1E82600173016161
:105980000175704770B50020FDF7FAF8050021D0C9
:10599000114CA560FDF7BCF9411C2846FAF75CFDE7
:1059A000E060FDF7DBF9411CE068FAF755FD0546BC
:1059B00060600A49401EFAF74FFD401C20707D21AF
:1059C000C900681EFAF748FD401C60610020FDF721
:1059D000D7F8206170BD00001406000840420F0097
:1059E00010B52048FBF7EAFD1F4801684900490847
:1059F00001601E4A11683023994311600121090694
:105A000001601B4941600521C9028160FF21C1601D
:105A1000FFF7F0FC17480168490849000160FDF7ED
:105A2000EDFCFFF7AFFF144A00211068036A8030D5
:105A3000C08FC400201A0C3019501068026A8030E0
:105A4000C08FC300181A001D11500C4A802103207A
:105A5000FBF738FD0A48FBF7A3FB0A48FBF74AFCB3
:105A600010BD0000586100108005264080032640CC
:105A7000010002008001264060060008F8050008C9
:105A8000400900082461001010B50248FEF77EFDB1
:105A900010BD00002C20000810B55B1E9C18085596
:105AA000000A002BF9D110BDF8B5040C8BB22646C4
:105AB00082B25E430D0C1046370C584336048019F1
:105AC0000021794116466E43370C3604801979411E
:105AD00026466E438919F8BD30B47446641E257895
